{
  "_format": "hh-sol-artifact-1",
  "contractName": "ICMRouter",
  "sourceName": "contracts/ICMRouter.sol",
  "abi": [
    {
      "anonymous": false,
      "inputs": [
        {
          "indexed": true,
          "internalType": "address",
          "name": "from",
          "type": "address"
        },
        {
          "indexed": true,
          "internalType": "address",
          "name": "to",
          "type": "address"
        },
        {
          "indexed": false,
          "internalType": "uint256",
          "name": "amount",
          "type": "uint256"
        },
        {
          "indexed": false,
          "internalType": "uint256",
          "name": "chainId",
          "type": "uint256"
        }
      ],
      "name": "MessageReceived",
      "type": "event"
    },
    {
      "anonymous": false,
      "inputs": [
        {
          "indexed": true,
          "internalType": "address",
          "name": "from",
          "type": "address"
        },
        {
          "indexed": true,
          "internalType": "address",
          "name": "to",
          "type": "address"
        },
        {
          "indexed": false,
          "internalType": "uint256",
          "name": "amount",
          "type": "uint256"
        },
        {
          "indexed": false,
          "internalType": "uint256",
          "name": "chainId",
          "type": "uint256"
        }
      ],
      "name": "MessageSent",
      "type": "event"
    },
    {
      "inputs": [
        {
          "internalType": "bytes32",
          "name": "",
          "type": "bytes32"
        }
      ],
      "name": "processedMessages",
      "outputs": [
        {
          "internalType": "bool",
          "name": "",
          "type": "bool"
        }
      ],
      "stateMutability": "view",
      "type": "function"
    },
    {
      "inputs": [
        {
          "internalType": "address",
          "name": "from",
          "type": "address"
        },
        {
          "internalType": "address",
          "name": "to",
          "type": "address"
        },
        {
          "internalType": "uint256",
          "name": "amount",
          "type": "uint256"
        },
        {
          "internalType": "uint256",
          "name": "chainId",
          "type": "uint256"
        },
        {
          "internalType": "bytes32",
          "name": "messageId",
          "type": "bytes32"
        }
      ],
      "name": "receiveMessage",
      "outputs": [],
      "stateMutability": "nonpayable",
      "type": "function"
    },
    {
      "inputs": [
        {
          "internalType": "address",
          "name": "to",
          "type": "address"
        },
        {
          "internalType": "uint256",
          "name": "amount",
          "type": "uint256"
        },
        {
          "internalType": "uint256",
          "name": "chainId",
          "type": "uint256"
        },
        {
          "internalType": "bytes32",
          "name": "messageId",
          "type": "bytes32"
        }
      ],
      "name": "sendMessage",
      "outputs": [],
      "stateMutability": "nonpayable",
      "type": "function"
    }
  ],
  "bytecode": "0x608060405234801561001057600080fd5b506105a1806100206000396000f3fe608060405234801561001057600080fd5b50600436106100415760003560e01c8063212091b31461004657806388ba16ab14610062578063f34c7b8514610092575b600080fd5b610060600480360381019061005b91906102fe565b6100ae565b005b61007c600480360381019061007791906103d8565b6101a7565b604051610089919061045f565b60405180910390f35b6100ac60048036038101906100a79190610375565b6101c7565b005b60008082815260200190815260200160002060009054906101000a900460ff161561010e576040517f08c379a00000000000000000000000000000000000000000000000000000000081526004016101059061047a565b60405180910390fd5b600160008083815260200190815260200160002060006101000a81548160ff0219169083151502179055508373ffffffffffffffffffffffffffffffffffffffff168573ffffffffffffffffffffffffffffffffffffffff167f11c8a142e484a2cfbf4d10216b04dcc58050fb7d9f6628e0c061f163872f90e9858560405161019892919061049a565b60405180910390a35050505050565b60006020528060005260406000206000915054906101000a900460ff1681565b60008082815260200190815260200160002060009054906101000a900460ff1615610227576040517f08c379a000000000000000000000000000000000000000000000000000000000815260040161021e9061047a565b60405180910390fd5b600160008083815260200190815260200160002060006101000a81548160ff0219169083151502179055508373ffffffffffffffffffffffffffffffffffffffff163373ffffffffffffffffffffffffffffffffffffffff167ffa00ffce6051230b4361a25cb8c6cf798674abf770922e7c08373265c95fc02785856040516102b192919061049a565b60405180910390a350505050565b6000813590506102ce81610526565b92915050565b6000813590506102e38161053d565b92915050565b6000813590506102f881610554565b92915050565b600080600080600060a0868803121561031657600080fd5b6000610324888289016102bf565b9550506020610335888289016102bf565b9450506040610346888289016102e9565b9350506060610357888289016102e9565b9250506080610368888289016102d4565b9150509295509295909350565b6000806000806080858703121561038b57600080fd5b6000610399878288016102bf565b94505060206103aa878288016102e9565b93505060406103bb878288016102e9565b92505060606103cc878288016102d4565b91505092959194509250565b6000602082840312156103ea57600080fd5b60006103f8848285016102d4565b91505092915050565b61040a816104e6565b82525050565b600061041d6019836104c3565b91507f4d65737361676520616c72656164792070726f636573736564000000000000006000830152602082019050919050565b6104598161051c565b82525050565b60006020820190506104746000830184610401565b92915050565b6000602082019050818103600083015261049381610410565b9050919050565b60006040820190506104af6000830185610450565b6104bc6020830184610450565b9392505050565b600082825260208201905092915050565b60006104df826104fc565b9050919050565b60008115159050919050565b6000819050919050565b600073ffffffffffffffffffffffffffffffffffffffff82169050919050565b6000819050919050565b61052f816104d4565b811461053a57600080fd5b50565b610546816104f2565b811461055157600080fd5b50565b61055d8161051c565b811461056857600080fd5b5056fea2646970667358221220ea0a23ddba025fb7ea1061e3117d024475b04852c26af3715254fe9d8abef0dc64736f6c63430008000033",
  "linkReferences": {},
  "deployedLinkReferences": {}
}