{
  "_format": "hh-sol-artifact-1",
  "contractName": "ICMHandler",
  "sourceName": "contracts/ICMHandler.sol",
  "abi": [
    {
      "inputs": [
        {
          "internalType": "address",
          "name": "_icmRouter",
          "type": "address"
        },
        {
          "internalType": "address",
          "name": "_carbonCredit",
          "type": "address"
        }
      ],
      "stateMutability": "nonpayable",
      "type": "constructor"
    },
    {
      "anonymous": false,
      "inputs": [
        {
          "indexed": true,
          "internalType": "address",
          "name": "from",
          "type": "address"
        },
        {
          "indexed": true,
          "internalType": "address",
          "name": "to",
          "type": "address"
        },
        {
          "indexed": false,
          "internalType": "uint256",
          "name": "amount",
          "type": "uint256"
        },
        {
          "indexed": false,
          "internalType": "uint256",
          "name": "chainId",
          "type": "uint256"
        }
      ],
      "name": "CrossChainTransfer",
      "type": "event"
    },
    {
      "inputs": [],
      "name": "carbonCredit",
      "outputs": [
        {
          "internalType": "contract ICarbonCredit",
          "name": "",
          "type": "address"
        }
      ],
      "stateMutability": "view",
      "type": "function"
    },
    {
      "inputs": [
        {
          "internalType": "address",
          "name": "from",
          "type": "address"
        },
        {
          "internalType": "address",
          "name": "to",
          "type": "address"
        },
        {
          "internalType": "uint256",
          "name": "amount",
          "type": "uint256"
        }
      ],
      "name": "handleCrossChainMessage",
      "outputs": [],
      "stateMutability": "nonpayable",
      "type": "function"
    },
    {
      "inputs": [],
      "name": "icmRouter",
      "outputs": [
        {
          "internalType": "address",
          "name": "",
          "type": "address"
        }
      ],
      "stateMutability": "view",
      "type": "function"
    },
    {
      "inputs": [
        {
          "internalType": "address",
          "name": "to",
          "type": "address"
        },
        {
          "internalType": "uint256",
          "name": "amount",
          "type": "uint256"
        },
        {
          "internalType": "uint256",
          "name": "chainId",
          "type": "uint256"
        }
      ],
      "name": "transferCredit",
      "outputs": [],
      "stateMutability": "nonpayable",
      "type": "function"
    }
  ],
  "bytecode": "0x608060405234801561001057600080fd5b506040516108f73803806108f7833981810160405281019061003291906100cf565b816000806101000a81548173ffffffffffffffffffffffffffffffffffffffff021916908373ffffffffffffffffffffffffffffffffffffffff16021790555080600160006101000a81548173ffffffffffffffffffffffffffffffffffffffff021916908373ffffffffffffffffffffffffffffffffffffffff1602179055505050610154565b6000815190506100c98161013d565b92915050565b600080604083850312156100e257600080fd5b60006100f0858286016100ba565b9250506020610101858286016100ba565b9150509250929050565b60006101168261011d565b9050919050565b600073ffffffffffffffffffffffffffffffffffffffff82169050919050565b6101468161010b565b811461015157600080fd5b50565b610794806101636000396000f3fe608060405234801561001057600080fd5b506004361061004c5760003560e01c80630d7670a1146100515780632d7702931461006d578063637bf7951461008b578063a45d245c146100a9575b600080fd5b61006b6004803603810190610066919061040c565b6100c5565b005b6100756101e7565b6040516100829190610550565b60405180910390f35b61009361020b565b6040516100a091906105fb565b60405180910390f35b6100c360048036038101906100be919061045b565b610231565b005b60008054906101000a900473ffffffffffffffffffffffffffffffffffffffff1673ffffffffffffffffffffffffffffffffffffffff163373ffffffffffffffffffffffffffffffffffffffff1614610153576040517f08c379a000000000000000000000000000000000000000000000000000000000815260040161014a90610616565b60405180910390fd5b600160009054906101000a900473ffffffffffffffffffffffffffffffffffffffff1673ffffffffffffffffffffffffffffffffffffffff166340c10f1983836040518363ffffffff1660e01b81526004016101b092919061059b565b600060405180830381600087803b1580156101ca57600080fd5b505af11580156101de573d6000803e3d6000fd5b50505050505050565b60008054906101000a900473ffffffffffffffffffffffffffffffffffffffff1681565b600160009054906101000a900473ffffffffffffffffffffffffffffffffffffffff1681565b600160009054906101000a900473ffffffffffffffffffffffffffffffffffffffff1673ffffffffffffffffffffffffffffffffffffffff16639dc29fac33846040518363ffffffff1660e01b815260040161028e92919061059b565b600060405180830381600087803b1580156102a857600080fd5b505af11580156102bc573d6000803e3d6000fd5b5050505060008383836040516020016102d7939291906105c4565b604051602081830303815290604052905060008054906101000a900473ffffffffffffffffffffffffffffffffffffffff1673ffffffffffffffffffffffffffffffffffffffff1663bb5ddb0f30836040518363ffffffff1660e01b815260040161034392919061056b565b600060405180830381600087803b15801561035d57600080fd5b505af1158015610371573d6000803e3d6000fd5b505050508373ffffffffffffffffffffffffffffffffffffffff163373ffffffffffffffffffffffffffffffffffffffff167fbe5f54200b66d2447334c5f5a9a874cfe01a8fc8b6b0c1b2414596f72d42e35a85856040516103d4929190610636565b60405180910390a350505050565b6000813590506103f181610730565b92915050565b60008135905061040681610747565b92915050565b60008060006060848603121561042157600080fd5b600061042f868287016103e2565b9350506020610440868287016103e2565b9250506040610451868287016103f7565b9150509250925092565b60008060006060848603121561047057600080fd5b600061047e868287016103e2565b935050602061048f868287016103f7565b92505060406104a0868287016103f7565b9150509250925092565b6104b38161068c565b82525050565b60006104c48261065f565b6104ce818561066a565b93506104de8185602086016106ec565b6104e78161071f565b840191505092915050565b6104fb816106c8565b82525050565b600061050e60138361067b565b91507f556e617574686f72697a65642063616c6c6572000000000000000000000000006000830152602082019050919050565b61054a816106be565b82525050565b600060208201905061056560008301846104aa565b92915050565b600060408201905061058060008301856104aa565b818103602083015261059281846104b9565b90509392505050565b60006040820190506105b060008301856104aa565b6105bd6020830184610541565b9392505050565b60006060820190506105d960008301866104aa565b6105e66020830185610541565b6105f36040830184610541565b949350505050565b600060208201905061061060008301846104f2565b92915050565b6000602082019050818103600083015261062f81610501565b9050919050565b600060408201905061064b6000830185610541565b6106586020830184610541565b9392505050565b600081519050919050565b600082825260208201905092915050565b600082825260208201905092915050565b60006106978261069e565b9050919050565b600073ffffffffffffffffffffffffffffffffffffffff82169050919050565b6000819050919050565b60006106d3826106da565b9050919050565b60006106e58261069e565b9050919050565b60005b8381101561070a5780820151818401526020810190506106ef565b83811115610719576000848401525b50505050565b6000601f19601f8301169050919050565b6107398161068c565b811461074457600080fd5b50565b610750816106be565b811461075b57600080fd5b5056fea2646970667358221220d6ce460ac59fdaf150d108fa88961a72c4c5e4bb32b99e1f256633eb4c23184c64736f6c63430008000033",
  "linkReferences": {},
  "deployedLinkReferences": {}
}