{
  "_format": "hh-sol-artifact-1",
  "contractName": "Marketplace",
  "sourceName": "contracts/Marketplace.sol",
  "abi": [
    {
      "inputs": [
        {
          "internalType": "address",
          "name": "_carbonCredit",
          "type": "address"
        },
        {
          "internalType": "address",
          "name": "_priceOracle",
          "type": "address"
        }
      ],
      "stateMutability": "nonpayable",
      "type": "constructor"
    },
    {
      "anonymous": false,
      "inputs": [
        {
          "indexed": true,
          "internalType": "address",
          "name": "seller",
          "type": "address"
        },
        {
          "indexed": true,
          "internalType": "uint256",
          "name": "id",
          "type": "uint256"
        },
        {
          "indexed": false,
          "internalType": "uint256",
          "name": "amount",
          "type": "uint256"
        },
        {
          "indexed": false,
          "internalType": "uint256",
          "name": "price",
          "type": "uint256"
        }
      ],
      "name": "Listed",
      "type": "event"
    },
    {
      "anonymous": false,
      "inputs": [
        {
          "indexed": true,
          "internalType": "address",
          "name": "buyer",
          "type": "address"
        },
        {
          "indexed": true,
          "internalType": "uint256",
          "name": "id",
          "type": "uint256"
        },
        {
          "indexed": false,
          "internalType": "uint256",
          "name": "amount",
          "type": "uint256"
        },
        {
          "indexed": false,
          "internalType": "uint256",
          "name": "price",
          "type": "uint256"
        }
      ],
      "name": "Sold",
      "type": "event"
    },
    {
      "inputs": [
        {
          "internalType": "uint256",
          "name": "id",
          "type": "uint256"
        }
      ],
      "name": "buyCredit",
      "outputs": [],
      "stateMutability": "payable",
      "type": "function"
    },
    {
      "inputs": [],
      "name": "carbonCredit",
      "outputs": [
        {
          "internalType": "contract CarbonCredit",
          "name": "",
          "type": "address"
        }
      ],
      "stateMutability": "view",
      "type": "function"
    },
    {
      "inputs": [
        {
          "internalType": "uint256",
          "name": "amount",
          "type": "uint256"
        }
      ],
      "name": "listCredit",
      "outputs": [],
      "stateMutability": "nonpayable",
      "type": "function"
    },
    {
      "inputs": [
        {
          "internalType": "uint256",
          "name": "",
          "type": "uint256"
        }
      ],
      "name": "listings",
      "outputs": [
        {
          "internalType": "address",
          "name": "seller",
          "type": "address"
        },
        {
          "internalType": "uint256",
          "name": "amount",
          "type": "uint256"
        },
        {
          "internalType": "uint256",
          "name": "price",
          "type": "uint256"
        }
      ],
      "stateMutability": "view",
      "type": "function"
    },
    {
      "inputs": [],
      "name": "nextListingId",
      "outputs": [
        {
          "internalType": "uint256",
          "name": "",
          "type": "uint256"
        }
      ],
      "stateMutability": "view",
      "type": "function"
    },
    {
      "inputs": [],
      "name": "priceOracle",
      "outputs": [
        {
          "internalType": "contract PriceOracle",
          "name": "",
          "type": "address"
        }
      ],
      "stateMutability": "view",
      "type": "function"
    }
  ],
  "bytecode": "0x608060405234801561001057600080fd5b50604051610e41380380610e41833981810160405281019061003291906100cf565b816000806101000a81548173ffffffffffffffffffffffffffffffffffffffff021916908373ffffffffffffffffffffffffffffffffffffffff16021790555080600160006101000a81548173ffffffffffffffffffffffffffffffffffffffff021916908373ffffffffffffffffffffffffffffffffffffffff1602179055505050610154565b6000815190506100c98161013d565b92915050565b600080604083850312156100e257600080fd5b60006100f0858286016100ba565b9250506020610101858286016100ba565b9150509250929050565b60006101168261011d565b9050919050565b600073ffffffffffffffffffffffffffffffffffffffff82169050919050565b6101468161010b565b811461015157600080fd5b50565b610cde806101636000396000f3fe6080604052600436106100555760003560e01c80632630c12f1461005a5780632ceb38c114610085578063637bf795146100ae5780637211dde4146100d9578063aaccf1ec146100f5578063de74e57b14610120575b600080fd5b34801561006657600080fd5b5061006f61015f565b60405161007c9190610a48565b60405180910390f35b34801561009157600080fd5b506100ac60048036038101906100a7919061082d565b610185565b005b3480156100ba57600080fd5b506100c36104d7565b6040516100d09190610a2d565b60405180910390f35b6100f360048036038101906100ee919061082d565b6104fb565b005b34801561010157600080fd5b5061010a610775565b6040516101179190610ac3565b60405180910390f35b34801561012c57600080fd5b506101476004803603810190610142919061082d565b61077b565b604051610156939291906109f6565b60405180910390f35b600160009054906101000a900473ffffffffffffffffffffffffffffffffffffffff1681565b6000600160009054906101000a900473ffffffffffffffffffffffffffffffffffffffff1673ffffffffffffffffffffffffffffffffffffffff166398d5fdca6040518163ffffffff1660e01b815260040160206040518083038186803b1580156101ef57600080fd5b505afa158015610203573d6000803e3d6000fd5b505050506040513d601f19601f820116820180604052508101906102279190610856565b90508160008054906101000a900473ffffffffffffffffffffffffffffffffffffffff1673ffffffffffffffffffffffffffffffffffffffff166370a08231336040518263ffffffff1660e01b8152600401610283919061097b565b60206040518083038186803b15801561029b57600080fd5b505afa1580156102af573d6000803e3d6000fd5b505050506040513d601f19601f820116820180604052508101906102d39190610856565b1015610314576040517f08c379a000000000000000000000000000000000000000000000000000000000815260040161030b90610a63565b60405180910390fd5b60008054906101000a900473ffffffffffffffffffffffffffffffffffffffff1673ffffffffffffffffffffffffffffffffffffffff166323b872dd3330856040518463ffffffff1660e01b815260040161037193929190610996565b602060405180830381600087803b15801561038b57600080fd5b505af115801561039f573d6000803e3d6000fd5b505050506040513d601f19601f820116820180604052508101906103c39190610804565b5060405180606001604052803373ffffffffffffffffffffffffffffffffffffffff1681526020018381526020018281525060026000600354815260200190815260200160002060008201518160000160006101000a81548173ffffffffffffffffffffffffffffffffffffffff021916908373ffffffffffffffffffffffffffffffffffffffff16021790555060208201518160010155604082015181600201559050506003543373ffffffffffffffffffffffffffffffffffffffff167f03dec9cb5eb28fc88294be525eef5c4e1c3f2ca49fbe9c31a5ae6f11945aaec184846040516104b3929190610ade565b60405180910390a3600360008154809291906104ce90610c02565b91905055505050565b60008054906101000a900473ffffffffffffffffffffffffffffffffffffffff1681565b60006002600083815260200190815260200160002090506000816001015411610559576040517f08c379a000000000000000000000000000000000000000000000000000000000815260040161055090610aa3565b60405180910390fd5b8060020154816001015461056d9190610b18565b34146105ae576040517f08c379a00000000000000000000000000000000000000000000000000000000081526004016105a590610a83565b60405180910390fd5b60008054906101000a900473ffffffffffffffffffffffffffffffffffffffff1673ffffffffffffffffffffffffffffffffffffffff1663a9059cbb3383600101546040518363ffffffff1660e01b815260040161060d9291906109cd565b602060405180830381600087803b15801561062757600080fd5b505af115801561063b573d6000803e3d6000fd5b505050506040513d601f19601f8201168201806040525081019061065f9190610804565b508060000160009054906101000a900473ffffffffffffffffffffffffffffffffffffffff1673ffffffffffffffffffffffffffffffffffffffff166108fc349081150290604051600060405180830381858888f193505050501580156106ca573d6000803e3d6000fd5b50813373ffffffffffffffffffffffffffffffffffffffff167fe029f26dbcf8c42dd2f352c10214a7fc26773dc62482c6241334a0402ac09a808360010154846002015460405161071c929190610ade565b60405180910390a360026000838152602001908152602001600020600080820160006101000a81549073ffffffffffffffffffffffffffffffffffffffff02191690556001820160009055600282016000905550505050565b60035481565b60026020528060005260406000206000915090508060000160009054906101000a900473ffffffffffffffffffffffffffffffffffffffff16908060010154908060020154905083565b6000815190506107d481610c7a565b92915050565b6000813590506107e981610c91565b92915050565b6000815190506107fe81610c91565b92915050565b60006020828403121561081657600080fd5b6000610824848285016107c5565b91505092915050565b60006020828403121561083f57600080fd5b600061084d848285016107da565b91505092915050565b60006020828403121561086857600080fd5b6000610876848285016107ef565b91505092915050565b61088881610b72565b82525050565b61089781610bba565b82525050565b6108a681610bde565b82525050565b60006108b9601483610b07565b91507f496e73756666696369656e742062616c616e63650000000000000000000000006000830152602082019050919050565b60006108f9601883610b07565b91507f496e636f7272656374207061796d656e7420616d6f756e7400000000000000006000830152602082019050919050565b6000610939601683610b07565b91507f4c697374696e6720646f6573206e6f74206578697374000000000000000000006000830152602082019050919050565b61097581610bb0565b82525050565b6000602082019050610990600083018461087f565b92915050565b60006060820190506109ab600083018661087f565b6109b8602083018561087f565b6109c5604083018461096c565b949350505050565b60006040820190506109e2600083018561087f565b6109ef602083018461096c565b9392505050565b6000606082019050610a0b600083018661087f565b610a18602083018561096c565b610a25604083018461096c565b949350505050565b6000602082019050610a42600083018461088e565b92915050565b6000602082019050610a5d600083018461089d565b92915050565b60006020820190508181036000830152610a7c816108ac565b9050919050565b60006020820190508181036000830152610a9c816108ec565b9050919050565b60006020820190508181036000830152610abc8161092c565b9050919050565b6000602082019050610ad8600083018461096c565b92915050565b6000604082019050610af3600083018561096c565b610b00602083018461096c565b9392505050565b600082825260208201905092915050565b6000610b2382610bb0565b9150610b2e83610bb0565b9250817fffffffffffffffffffffffffffffffffffffffffffffffffffffffffffffffff0483118215151615610b6757610b66610c4b565b5b828202905092915050565b6000610b7d82610b90565b9050919050565b60008115159050919050565b600073ffffffffffffffffffffffffffffffffffffffff82169050919050565b6000819050919050565b6000610bc582610bcc565b9050919050565b6000610bd782610b90565b9050919050565b6000610be982610bf0565b9050919050565b6000610bfb82610b90565b9050919050565b6000610c0d82610bb0565b91507fffffffffffffffffffffffffffffffffffffffffffffffffffffffffffffffff821415610c4057610c3f610c4b565b5b600182019050919050565b7f4e487b7100000000000000000000000000000000000000000000000000000000600052601160045260246000fd5b610c8381610b84565b8114610c8e57600080fd5b50565b610c9a81610bb0565b8114610ca557600080fd5b5056fea26469706673582212203dfa5e67d1ca358d5336e32d1ed660d004084b8f04f62e343ef4506371245a8364736f6c63430008000033",
  "linkReferences": {},
  "deployedLinkReferences": {}
}