{
  "_format": "hh-sol-artifact-1",
  "contractName": "PriceOracle",
  "sourceName": "contracts/PriceOracle.sol",
  "abi": [
    {
      "inputs": [
        {
          "internalType": "address",
          "name": "_oracle",
          "type": "address"
        }
      ],
      "stateMutability": "nonpayable",
      "type": "constructor"
    },
    {
      "anonymous": false,
      "inputs": [
        {
          "indexed": false,
          "internalType": "uint256",
          "name": "oldPrice",
          "type": "uint256"
        },
        {
          "indexed": false,
          "internalType": "uint256",
          "name": "newPrice",
          "type": "uint256"
        }
      ],
      "name": "PriceUpdated",
      "type": "event"
    },
    {
      "inputs": [],
      "name": "currentPrice",
      "outputs": [
        {
          "internalType": "uint256",
          "name": "",
          "type": "uint256"
        }
      ],
      "stateMutability": "view",
      "type": "function"
    },
    {
      "inputs": [],
      "name": "getPrice",
      "outputs": [
        {
          "internalType": "uint256",
          "name": "",
          "type": "uint256"
        }
      ],
      "stateMutability": "view",
      "type": "function"
    },
    {
      "inputs": [],
      "name": "oracle",
      "outputs": [
        {
          "internalType": "address",
          "name": "",
          "type": "address"
        }
      ],
      "stateMutability": "view",
      "type": "function"
    },
    {
      "inputs": [],
      "name": "updatePrice",
      "outputs": [],
      "stateMutability": "nonpayable",
      "type": "function"
    }
  ],
  "bytecode": "0x608060405234801561001057600080fd5b506040516104da3803806104da8339818101604052810190610032919061008e565b80600160006101000a81548173ffffffffffffffffffffffffffffffffffffffff021916908373ffffffffffffffffffffffffffffffffffffffff16021790555050610100565b600081519050610088816100e9565b92915050565b6000602082840312156100a057600080fd5b60006100ae84828501610079565b91505092915050565b60006100c2826100c9565b9050919050565b600073ffffffffffffffffffffffffffffffffffffffff82169050919050565b6100f2816100b7565b81146100fd57600080fd5b50565b6103cb8061010f6000396000f3fe608060405234801561001057600080fd5b506004361061004c5760003560e01c8063673a7e28146100515780637dc0d1d01461005b57806398d5fdca146100795780639d1b464a14610097575b600080fd5b6100596100b5565b005b6100636101e1565b60405161007091906102b2565b60405180910390f35b610081610207565b60405161008e91906102ed565b60405180910390f35b61009f610210565b6040516100ac91906102ed565b60405180910390f35b6000600160009054906101000a900473ffffffffffffffffffffffffffffffffffffffff1673ffffffffffffffffffffffffffffffffffffffff16638e15f4736040518163ffffffff1660e01b815260040160206040518083038186803b15801561011f57600080fd5b505afa158015610133573d6000803e3d6000fd5b505050506040513d601f19601f82011682018060405250810190610157919061022b565b90506000811161019c576040517f08c379a0000000000000000000000000000000000000000000000000000000008152600401610193906102cd565b60405180910390fd5b7f945c1c4e99aa89f648fbfe3df471b916f719e16d960fcec0737d4d56bd696838600054826040516101cf929190610308565b60405180910390a18060008190555050565b600160009054906101000a900473ffffffffffffffffffffffffffffffffffffffff1681565b60008054905090565b60005481565b6000815190506102258161037e565b92915050565b60006020828403121561023d57600080fd5b600061024b84828501610216565b91505092915050565b61025d81610342565b82525050565b6000610270601983610331565b91507f496e76616c69642070726963652066726f6d206f7261636c65000000000000006000830152602082019050919050565b6102ac81610374565b82525050565b60006020820190506102c76000830184610254565b92915050565b600060208201905081810360008301526102e681610263565b9050919050565b600060208201905061030260008301846102a3565b92915050565b600060408201905061031d60008301856102a3565b61032a60208301846102a3565b9392505050565b600082825260208201905092915050565b600061034d82610354565b9050919050565b600073ffffffffffffffffffffffffffffffffffffffff82169050919050565b6000819050919050565b61038781610374565b811461039257600080fd5b5056fea2646970667358221220007a3167f9d507195f648a4f29756400be67b2eb484d49e1590ceeec0e9c46fa64736f6c63430008000033",
  "linkReferences": {},
  "deployedLinkReferences": {}
}